{
  "contractName": "CharityTracker",
  "abi": [
    {
      "inputs": [],
      "stateMutability": "nonpayable",
      "type": "constructor"
    },
    {
      "anonymous": false,
      "inputs": [
        {
          "indexed": true,
          "internalType": "address",
          "name": "donor",
          "type": "address"
        },
        {
          "indexed": false,
          "internalType": "uint256",
          "name": "amount",
          "type": "uint256"
        },
        {
          "indexed": false,
          "internalType": "uint256",
          "name": "timestamp",
          "type": "uint256"
        }
      ],
      "name": "DonationReceived",
      "type": "event"
    },
    {
      "inputs": [
        {
          "internalType": "address",
          "name": "",
          "type": "address"
        },
        {
          "internalType": "uint256",
          "name": "",
          "type": "uint256"
        }
      ],
      "name": "donations",
      "outputs": [
        {
          "internalType": "address",
          "name": "donor",
          "type": "address"
        },
        {
          "internalType": "uint256",
          "name": "amount",
          "type": "uint256"
        },
        {
          "internalType": "uint256",
          "name": "timestamp",
          "type": "uint256"
        }
      ],
      "stateMutability": "view",
      "type": "function",
      "constant": true
    },
    {
      "inputs": [],
      "name": "owner",
      "outputs": [
        {
          "internalType": "address",
          "name": "",
          "type": "address"
        }
      ],
      "stateMutability": "view",
      "type": "function",
      "constant": true
    },
    {
      "stateMutability": "payable",
      "type": "receive",
      "payable": true
    },
    {
      "inputs": [],
      "name": "donate",
      "outputs": [],
      "stateMutability": "payable",
      "type": "function",
      "payable": true
    },
    {
      "inputs": [
        {
          "internalType": "address",
          "name": "donor",
          "type": "address"
        }
      ],
      "name": "getDonations",
      "outputs": [
        {
          "components": [
            {
              "internalType": "address",
              "name": "donor",
              "type": "address"
            },
            {
              "internalType": "uint256",
              "name": "amount",
              "type": "uint256"
            },
            {
              "internalType": "uint256",
              "name": "timestamp",
              "type": "uint256"
            }
          ],
          "internalType": "struct CharityTracker.Donation[]",
          "name": "",
          "type": "tuple[]"
        }
      ],
      "stateMutability": "view",
      "type": "function",
      "constant": true
    },
    {
      "inputs": [
        {
          "internalType": "uint256",
          "name": "amount",
          "type": "uint256"
        }
      ],
      "name": "withdraw",
      "outputs": [],
      "stateMutability": "nonpayable",
      "type": "function"
    }
  ],
  "bytecode": "0x608060405234801561001057600080fd5b50336000806101000a81548173ffffffffffffffffffffffffffffffffffffffff021916908373ffffffffffffffffffffffffffffffffffffffff160217905550610971806100606000396000f3fe60806040526004361061004e5760003560e01c80631910bdc2146100625780632e1a7d4d1461009f5780638da5cb5b146100c857806395086ed1146100f3578063ed88c68e146101325761005d565b3661005d5761005b61013c565b005b600080fd5b34801561006e57600080fd5b5061008960048036038101906100849190610582565b6102cd565b60405161009691906107fc565b60405180910390f35b3480156100ab57600080fd5b506100c660048036038101906100c191906105e7565b6103d5565b005b3480156100d457600080fd5b506100dd6104cd565b6040516100ea91906107aa565b60405180910390f35b3480156100ff57600080fd5b5061011a600480360381019061011591906105ab565b6104f1565b604051610129939291906107c5565b60405180910390f35b61013a61013c565b005b6000341161017f576040517f08c379a00000000000000000000000000000000000000000000000000000000081526004016101769061083e565b60405180910390fd5b600060405180606001604052803373ffffffffffffffffffffffffffffffffffffffff168152602001348152602001428152509050600160003373ffffffffffffffffffffffffffffffffffffffff1673ffffffffffffffffffffffffffffffffffffffff16815260200190815260200160002081908060018154018082558091505060019003906000526020600020906003020160009091909190915060008201518160000160006101000a81548173ffffffffffffffffffffffffffffffffffffffff021916908373ffffffffffffffffffffffffffffffffffffffff160217905550602082015181600101556040820151816002015550503373ffffffffffffffffffffffffffffffffffffffff167f4b0304ab2f313234b1cea012339c8f8c3bf2c8bb357d81a579cfdb35d2e3d03034426040516102c292919061085e565b60405180910390a250565b6060600160008373ffffffffffffffffffffffffffffffffffffffff1673ffffffffffffffffffffffffffffffffffffffff168152602001908152602001600020805480602002602001604051908101604052809291908181526020016000905b828210156103ca57838290600052602060002090600302016040518060600160405290816000820160009054906101000a900473ffffffffffffffffffffffffffffffffffffffff1673ffffffffffffffffffffffffffffffffffffffff1673ffffffffffffffffffffffffffffffffffffffff168152602001600182015481526020016002820154815250508152602001906001019061032e565b505050509050919050565b60008054906101000a900473ffffffffffffffffffffffffffffffffffffffff1673ffffffffffffffffffffffffffffffffffffffff163373ffffffffffffffffffffffffffffffffffffffff1614610463576040517f08c379a000000000000000000000000000000000000000000000000000000000815260040161045a9061081e565b60405180910390fd5b60008054906101000a900473ffffffffffffffffffffffffffffffffffffffff1673ffffffffffffffffffffffffffffffffffffffff166108fc829081150290604051600060405180830381858888f193505050501580156104c9573d6000803e3d6000fd5b5050565b60008054906101000a900473ffffffffffffffffffffffffffffffffffffffff1681565b6001602052816000526040600020818154811061050d57600080fd5b9060005260206000209060030201600091509150508060000160009054906101000a900473ffffffffffffffffffffffffffffffffffffffff16908060010154908060020154905083565b6000813590506105678161090d565b92915050565b60008135905061057c81610924565b92915050565b60006020828403121561059457600080fd5b60006105a284828501610558565b91505092915050565b600080604083850312156105be57600080fd5b60006105cc85828601610558565b92505060206105dd8582860161056d565b9150509250929050565b6000602082840312156105f957600080fd5b60006106078482850161056d565b91505092915050565b600061061c838361074a565b60608301905092915050565b610631816108d1565b82525050565b610640816108d1565b82525050565b600061065182610897565b61065b81856108af565b935061066683610887565b8060005b8381101561069757815161067e8882610610565b9750610689836108a2565b92505060018101905061066a565b5085935050505092915050565b60006106b16021836108c0565b91507f4f6e6c7920746865206f776e65722063616e2077697468647261772066756e6460008301527f73000000000000000000000000000000000000000000000000000000000000006020830152604082019050919050565b6000610717601f836108c0565b91507f446f6e6174696f6e206d7573742062652067726561746572207468616e2030006000830152602082019050919050565b6060820160008201516107606000850182610628565b506020820151610773602085018261078c565b506040820151610786604085018261078c565b50505050565b61079581610903565b82525050565b6107a481610903565b82525050565b60006020820190506107bf6000830184610637565b92915050565b60006060820190506107da6000830186610637565b6107e7602083018561079b565b6107f4604083018461079b565b949350505050565b600060208201905081810360008301526108168184610646565b905092915050565b60006020820190508181036000830152610837816106a4565b9050919050565b600060208201905081810360008301526108578161070a565b9050919050565b6000604082019050610873600083018561079b565b610880602083018461079b565b9392505050565b6000819050602082019050919050565b600081519050919050565b6000602082019050919050565b600082825260208201905092915050565b600082825260208201905092915050565b60006108dc826108e3565b9050919050565b600073ffffffffffffffffffffffffffffffffffffffff82169050919050565b6000819050919050565b610916816108d1565b811461092157600080fd5b50565b61092d81610903565b811461093857600080fd5b5056fea2646970667358221220ff3850cf69fbc08ffbdaed97622ad0a89eb8beb8f3abbbd3fda92e465d33e58864736f6c63430008000033",
  "immutableReferences": {},
  "source": "// SPDX-License-Identifier: MIT\npragma solidity ^0.8.0;\n\ncontract CharityTracker {\n    struct Donation {\n        address donor;\n        uint amount;\n        uint timestamp;\n    }\n\n    address public owner;\n    mapping(address => Donation[]) public donations;\n\n    event DonationReceived(address indexed donor, uint amount, uint timestamp);\n\n    constructor() {\n        owner = msg.sender;\n    }\n\n    function donate() public payable {\n        require(msg.value > 0, \"Donation must be greater than 0\");\n        \n        Donation memory newDonation = Donation({\n            donor: msg.sender,\n            amount: msg.value,\n            timestamp: block.timestamp\n        });\n\n        donations[msg.sender].push(newDonation);\n\n        emit DonationReceived(msg.sender, msg.value, block.timestamp);\n    }\n\n    function getDonations(address donor) public view returns (Donation[] memory) {\n        return donations[donor];\n    }\n\n    function withdraw(uint amount) public {\n        require(msg.sender == owner, \"Only the owner can withdraw funds\");\n        payable(owner).transfer(amount);\n    }\n\n    receive() external payable {\n        donate();\n    }\n}\n",
  "sourcePath": "/Users/martinhe/whermhole/server/charity-tracker/contracts/CharityTracker.sol",
  "compiler": {
    "name": "solc",
    "version": "0.8.0+commit.c7dfd78e.Emscripten.clang"
  },
  "schemaVersion": "3.4.16",
  "updatedAt": "2024-05-25T23:10:10.969Z",
  "networkType": "ethereum",
  "devdoc": {
    "kind": "dev",
    "methods": {},
    "version": 1
  },
  "userdoc": {
    "kind": "user",
    "methods": {},
    "version": 1
  }
}